{
	"data": {
		"bytecode": {
			"linkReferences": {},
			"object": "608060405234801561001057600080fd5b50610125806100206000396000f300608060405260043610605d576000357c0100000000000000000000000000000000000000000000000000000000900463ffffffff16806361bc221a146062578063a6297b2514608a578063c9689eb114609e578063ca3987e81460b2575b600080fd5b348015606d57600080fd5b50607460c6565b6040518082815260200191505060405180910390f35b348015609557600080fd5b50609c60cc565b005b34801560a957600080fd5b5060b060de565b005b34801560bd57600080fd5b5060c460e7565b005b60005481565b60016000808282540192505081905550565b60008081905550565b600160008082825403925050819055505600a165627a7a723058207648223657f6639fcc4052fb46df3e7a94c80f032b893bbe72815fa1fb682b210029",
			"opcodes": "PUSH1 0x80 PUSH1 0x40 MSTORE CALLVALUE DUP1 ISZERO PUSH2 0x10 JUMPI PUSH1 0x0 DUP1 REVERT JUMPDEST POP PUSH2 0x125 DUP1 PUSH2 0x20 PUSH1 0x0 CODECOPY PUSH1 0x0 RETURN STOP PUSH1 0x80 PUSH1 0x40 MSTORE PUSH1 0x4 CALLDATASIZE LT PUSH1 0x5D JUMPI PUSH1 0x0 CALLDATALOAD PUSH29 0x100000000000000000000000000000000000000000000000000000000 SWAP1 DIV PUSH4 0xFFFFFFFF AND DUP1 PUSH4 0x61BC221A EQ PUSH1 0x62 JUMPI DUP1 PUSH4 0xA6297B25 EQ PUSH1 0x8A JUMPI DUP1 PUSH4 0xC9689EB1 EQ PUSH1 0x9E JUMPI DUP1 PUSH4 0xCA3987E8 EQ PUSH1 0xB2 JUMPI JUMPDEST PUSH1 0x0 DUP1 REVERT JUMPDEST CALLVALUE DUP1 ISZERO PUSH1 0x6D JUMPI PUSH1 0x0 DUP1 REVERT JUMPDEST POP PUSH1 0x74 PUSH1 0xC6 JUMP JUMPDEST PUSH1 0x40 MLOAD DUP1 DUP3 DUP2 MSTORE PUSH1 0x20 ADD SWAP2 POP POP PUSH1 0x40 MLOAD DUP1 SWAP2 SUB SWAP1 RETURN JUMPDEST CALLVALUE DUP1 ISZERO PUSH1 0x95 JUMPI PUSH1 0x0 DUP1 REVERT JUMPDEST POP PUSH1 0x9C PUSH1 0xCC JUMP JUMPDEST STOP JUMPDEST CALLVALUE DUP1 ISZERO PUSH1 0xA9 JUMPI PUSH1 0x0 DUP1 REVERT JUMPDEST POP PUSH1 0xB0 PUSH1 0xDE JUMP JUMPDEST STOP JUMPDEST CALLVALUE DUP1 ISZERO PUSH1 0xBD JUMPI PUSH1 0x0 DUP1 REVERT JUMPDEST POP PUSH1 0xC4 PUSH1 0xE7 JUMP JUMPDEST STOP JUMPDEST PUSH1 0x0 SLOAD DUP2 JUMP JUMPDEST PUSH1 0x1 PUSH1 0x0 DUP1 DUP3 DUP3 SLOAD ADD SWAP3 POP POP DUP2 SWAP1 SSTORE POP JUMP JUMPDEST PUSH1 0x0 DUP1 DUP2 SWAP1 SSTORE POP JUMP JUMPDEST PUSH1 0x1 PUSH1 0x0 DUP1 DUP3 DUP3 SLOAD SUB SWAP3 POP POP DUP2 SWAP1 SSTORE POP JUMP STOP LOG1 PUSH6 0x627A7A723058 KECCAK256 PUSH23 0x48223657F6639FCC4052FB46DF3E7A94C80F032B893BBE PUSH19 0x815FA1FB682B21002900000000000000000000 "
		},
		"gasEstimates": {
			"creation": {
				"codeDepositCost": "58600",
				"executionCost": "111",
				"totalCost": "58711"
			},
			"external": {
				"counter()": "394",
				"decrement_Account()": "20432",
				"increment_Amount()": "20388",
				"reset_Account()": "5191"
			}
		},
		"methodIdentifiers": {
			"counter()": "61bc221a",
			"decrement_Account()": "ca3987e8",
			"increment_Amount()": "a6297b25",
			"reset_Account()": "c9689eb1"
		}
	},
	"abi": [
		{
			"constant": true,
			"inputs": [],
			"name": "counter",
			"outputs": [
				{
					"name": "",
					"type": "int256"
				}
			],
			"payable": false,
			"stateMutability": "view",
			"type": "function"
		},
		{
			"constant": false,
			"inputs": [],
			"name": "increment_Amount",
			"outputs": [],
			"payable": false,
			"stateMutability": "nonpayable",
			"type": "function"
		},
		{
			"constant": false,
			"inputs": [],
			"name": "reset_Account",
			"outputs": [],
			"payable": false,
			"stateMutability": "nonpayable",
			"type": "function"
		},
		{
			"constant": false,
			"inputs": [],
			"name": "decrement_Account",
			"outputs": [],
			"payable": false,
			"stateMutability": "nonpayable",
			"type": "function"
		}
	]
}