{
	"contracts/learn_flow/enums.sol": {
		"Enums": {
			"abi": [
				{
					"constant": false,
					"inputs": [],
					"name": "activate",
					"outputs": [],
					"payable": false,
					"stateMutability": "nonpayable",
					"type": "function"
				},
				{
					"constant": true,
					"inputs": [],
					"name": "isActive",
					"outputs": [
						{
							"name": "",
							"type": "bool"
						}
					],
					"payable": false,
					"stateMutability": "view",
					"type": "function"
				},
				{
					"constant": true,
					"inputs": [],
					"name": "isSleepy",
					"outputs": [
						{
							"name": "",
							"type": "bool"
						}
					],
					"payable": false,
					"stateMutability": "view",
					"type": "function"
				},
				{
					"constant": false,
					"inputs": [],
					"name": "deactivate",
					"outputs": [],
					"payable": false,
					"stateMutability": "nonpayable",
					"type": "function"
				},
				{
					"constant": true,
					"inputs": [],
					"name": "state",
					"outputs": [
						{
							"name": "",
							"type": "uint8"
						}
					],
					"payable": false,
					"stateMutability": "view",
					"type": "function"
				},
				{
					"inputs": [],
					"payable": false,
					"stateMutability": "nonpayable",
					"type": "constructor"
				}
			],
			"devdoc": {
				"methods": {},
				"title": "Enums\r Demonstrates usage of enums in Solidity.\r"
			},
			"evm": {
				"assembly": "    /* \"contracts/learn_flow/enums.sol\":118:676  contract Enums {\r... */\n  mstore(0x40, 0x80)\n    /* \"contracts/learn_flow/enums.sol\":237:319  constructor() public {\r... */\n  callvalue\n    /* \"--CODEGEN--\":8:17   */\n  dup1\n    /* \"--CODEGEN--\":5:7   */\n  iszero\n  tag_1\n  jumpi\n    /* \"--CODEGEN--\":30:31   */\n  0x0\n    /* \"--CODEGEN--\":27:28   */\n  dup1\n    /* \"--CODEGEN--\":20:32   */\n  revert\n    /* \"--CODEGEN--\":5:7   */\ntag_1:\n    /* \"contracts/learn_flow/enums.sol\":237:319  constructor() public {\r... */\n  pop\n    /* \"contracts/learn_flow/enums.sol\":277:290  State.Waiting */\n  0x0\n    /* \"contracts/learn_flow/enums.sol\":269:274  state */\n  dup1\n  0x0\n    /* \"contracts/learn_flow/enums.sol\":269:290  state = State.Waiting */\n  0x100\n  exp\n  dup2\n  sload\n  dup2\n  0xff\n  mul\n  not\n  and\n  swap1\n  dup4\n  0x2\n  dup2\n  gt\n  iszero\n  tag_4\n  jumpi\n  invalid\ntag_4:\n  mul\n  or\n  swap1\n  sstore\n  pop\n    /* \"contracts/learn_flow/enums.sol\":118:676  contract Enums {\r... */\n  dataSize(sub_0)\n  dup1\n  dataOffset(sub_0)\n  0x0\n  codecopy\n  0x0\n  return\nstop\n\nsub_0: assembly {\n        /* \"contracts/learn_flow/enums.sol\":118:676  contract Enums {\r... */\n      mstore(0x40, 0x80)\n      jumpi(tag_1, lt(calldatasize, 0x4))\n      calldataload(0x0)\n      0x100000000000000000000000000000000000000000000000000000000\n      swap1\n      div\n      dup1\n      0xf15f4c0\n      eq\n      tag_2\n      jumpi\n      dup1\n      0x22f3e2d4\n      eq\n      tag_3\n      jumpi\n      dup1\n      0x4fc08316\n      eq\n      tag_4\n      jumpi\n      dup1\n      0x51b42b00\n      eq\n      tag_5\n      jumpi\n      dup1\n      0xc19d93fb\n      eq\n      tag_6\n      jumpi\n    tag_1:\n      0x0\n      dup1\n      revert\n        /* \"contracts/learn_flow/enums.sol\":327:393  function activate() public {\r... */\n    tag_2:\n      callvalue\n        /* \"--CODEGEN--\":8:17   */\n      dup1\n        /* \"--CODEGEN--\":5:7   */\n      iszero\n      tag_7\n      jumpi\n        /* \"--CODEGEN--\":30:31   */\n      0x0\n        /* \"--CODEGEN--\":27:28   */\n      dup1\n        /* \"--CODEGEN--\":20:32   */\n      revert\n        /* \"--CODEGEN--\":5:7   */\n    tag_7:\n        /* \"contracts/learn_flow/enums.sol\":327:393  function activate() public {\r... */\n      pop\n      tag_8\n      tag_9\n      jump\t// in\n    tag_8:\n      stop\n        /* \"contracts/learn_flow/enums.sol\":477:571  function isActive() public view returns (bool) {\r... */\n    tag_3:\n      callvalue\n        /* \"--CODEGEN--\":8:17   */\n      dup1\n        /* \"--CODEGEN--\":5:7   */\n      iszero\n      tag_10\n      jumpi\n        /* \"--CODEGEN--\":30:31   */\n      0x0\n        /* \"--CODEGEN--\":27:28   */\n      dup1\n        /* \"--CODEGEN--\":20:32   */\n      revert\n        /* \"--CODEGEN--\":5:7   */\n    tag_10:\n        /* \"contracts/learn_flow/enums.sol\":477:571  function isActive() public view returns (bool) {\r... */\n      pop\n      tag_11\n      tag_12\n      jump\t// in\n    tag_11:\n      mload(0x40)\n      dup1\n      dup3\n      iszero\n      iszero\n      iszero\n      iszero\n      dup2\n      mstore\n      0x20\n      add\n      swap2\n      pop\n      pop\n      mload(0x40)\n      dup1\n      swap2\n      sub\n      swap1\n      return\n        /* \"contracts/learn_flow/enums.sol\":579:673  function isSleepy() public view returns (bool) {\r... */\n    tag_4:\n      callvalue\n        /* \"--CODEGEN--\":8:17   */\n      dup1\n        /* \"--CODEGEN--\":5:7   */\n      iszero\n      tag_13\n      jumpi\n        /* \"--CODEGEN--\":30:31   */\n      0x0\n        /* \"--CODEGEN--\":27:28   */\n      dup1\n        /* \"--CODEGEN--\":20:32   */\n      revert\n        /* \"--CODEGEN--\":5:7   */\n    tag_13:\n        /* \"contracts/learn_flow/enums.sol\":579:673  function isSleepy() public view returns (bool) {\r... */\n      pop\n      tag_14\n      tag_15\n      jump\t// in\n    tag_14:\n      mload(0x40)\n      dup1\n      dup3\n      iszero\n      iszero\n      iszero\n      iszero\n      dup2\n      mstore\n      0x20\n      add\n      swap2\n      pop\n      pop\n      mload(0x40)\n      dup1\n      swap2\n      sub\n      swap1\n      return\n        /* \"contracts/learn_flow/enums.sol\":401:469  function deactivate() public {\r... */\n    tag_5:\n      callvalue\n        /* \"--CODEGEN--\":8:17   */\n      dup1\n        /* \"--CODEGEN--\":5:7   */\n      iszero\n      tag_16\n      jumpi\n        /* \"--CODEGEN--\":30:31   */\n      0x0\n        /* \"--CODEGEN--\":27:28   */\n      dup1\n        /* \"--CODEGEN--\":20:32   */\n      revert\n        /* \"--CODEGEN--\":5:7   */\n    tag_16:\n        /* \"contracts/learn_flow/enums.sol\":401:469  function deactivate() public {\r... */\n      pop\n      tag_17\n      tag_18\n      jump\t// in\n    tag_17:\n      stop\n        /* \"contracts/learn_flow/enums.sol\":210:228  State public state */\n    tag_6:\n      callvalue\n        /* \"--CODEGEN--\":8:17   */\n      dup1\n        /* \"--CODEGEN--\":5:7   */\n      iszero\n      tag_19\n      jumpi\n        /* \"--CODEGEN--\":30:31   */\n      0x0\n        /* \"--CODEGEN--\":27:28   */\n      dup1\n        /* \"--CODEGEN--\":20:32   */\n      revert\n        /* \"--CODEGEN--\":5:7   */\n    tag_19:\n        /* \"contracts/learn_flow/enums.sol\":210:228  State public state */\n      pop\n      tag_20\n      tag_21\n      jump\t// in\n    tag_20:\n      mload(0x40)\n      dup1\n      dup3\n      0x2\n      dup2\n      gt\n      iszero\n      tag_22\n      jumpi\n      invalid\n    tag_22:\n      0xff\n      and\n      dup2\n      mstore\n      0x20\n      add\n      swap2\n      pop\n      pop\n      mload(0x40)\n      dup1\n      swap2\n      sub\n      swap1\n      return\n        /* \"contracts/learn_flow/enums.sol\":327:393  function activate() public {\r... */\n    tag_9:\n        /* \"contracts/learn_flow/enums.sol\":373:385  State.Active */\n      0x2\n        /* \"contracts/learn_flow/enums.sol\":365:370  state */\n      0x0\n      dup1\n        /* \"contracts/learn_flow/enums.sol\":365:385  state = State.Active */\n      0x100\n      exp\n      dup2\n      sload\n      dup2\n      0xff\n      mul\n      not\n      and\n      swap1\n      dup4\n      0x2\n      dup2\n      gt\n      iszero\n      tag_24\n      jumpi\n      invalid\n    tag_24:\n      mul\n      or\n      swap1\n      sstore\n      pop\n        /* \"contracts/learn_flow/enums.sol\":327:393  function activate() public {\r... */\n      jump\t// out\n        /* \"contracts/learn_flow/enums.sol\":477:571  function isActive() public view returns (bool) {\r... */\n    tag_12:\n        /* \"contracts/learn_flow/enums.sol\":518:522  bool */\n      0x0\n        /* \"contracts/learn_flow/enums.sol\":551:563  State.Active */\n      0x2\n        /* \"contracts/learn_flow/enums.sol\":542:563  state == State.Active */\n      dup1\n      dup2\n      gt\n      iszero\n      tag_26\n      jumpi\n      invalid\n    tag_26:\n        /* \"contracts/learn_flow/enums.sol\":542:547  state */\n      0x0\n      dup1\n      swap1\n      sload\n      swap1\n      0x100\n      exp\n      swap1\n      div\n      0xff\n      and\n        /* \"contracts/learn_flow/enums.sol\":542:563  state == State.Active */\n      0x2\n      dup2\n      gt\n      iszero\n      tag_27\n      jumpi\n      invalid\n    tag_27:\n      eq\n        /* \"contracts/learn_flow/enums.sol\":535:563  return state == State.Active */\n      swap1\n      pop\n        /* \"contracts/learn_flow/enums.sol\":477:571  function isActive() public view returns (bool) {\r... */\n      swap1\n      jump\t// out\n        /* \"contracts/learn_flow/enums.sol\":579:673  function isSleepy() public view returns (bool) {\r... */\n    tag_15:\n        /* \"contracts/learn_flow/enums.sol\":620:624  bool */\n      0x0\n        /* \"contracts/learn_flow/enums.sol\":653:665  State.Sleepy */\n      0x1\n        /* \"contracts/learn_flow/enums.sol\":644:665  state == State.Sleepy */\n      0x2\n      dup2\n      gt\n      iszero\n      tag_29\n      jumpi\n      invalid\n    tag_29:\n        /* \"contracts/learn_flow/enums.sol\":644:649  state */\n      0x0\n      dup1\n      swap1\n      sload\n      swap1\n      0x100\n      exp\n      swap1\n      div\n      0xff\n      and\n        /* \"contracts/learn_flow/enums.sol\":644:665  state == State.Sleepy */\n      0x2\n      dup2\n      gt\n      iszero\n      tag_30\n      jumpi\n      invalid\n    tag_30:\n      eq\n        /* \"contracts/learn_flow/enums.sol\":637:665  return state == State.Sleepy */\n      swap1\n      pop\n        /* \"contracts/learn_flow/enums.sol\":579:673  function isSleepy() public view returns (bool) {\r... */\n      swap1\n      jump\t// out\n        /* \"contracts/learn_flow/enums.sol\":401:469  function deactivate() public {\r... */\n    tag_18:\n        /* \"contracts/learn_flow/enums.sol\":449:461  State.Sleepy */\n      0x1\n        /* \"contracts/learn_flow/enums.sol\":441:446  state */\n      0x0\n      dup1\n        /* \"contracts/learn_flow/enums.sol\":441:461  state = State.Sleepy */\n      0x100\n      exp\n      dup2\n      sload\n      dup2\n      0xff\n      mul\n      not\n      and\n      swap1\n      dup4\n      0x2\n      dup2\n      gt\n      iszero\n      tag_32\n      jumpi\n      invalid\n    tag_32:\n      mul\n      or\n      swap1\n      sstore\n      pop\n        /* \"contracts/learn_flow/enums.sol\":401:469  function deactivate() public {\r... */\n      jump\t// out\n        /* \"contracts/learn_flow/enums.sol\":210:228  State public state */\n    tag_21:\n      0x0\n      dup1\n      swap1\n      sload\n      swap1\n      0x100\n      exp\n      swap1\n      div\n      0xff\n      and\n      dup2\n      jump\t// out\n\n    auxdata: 0xa165627a7a72305820622f087621fbda9850592e4888ada741c08ad597b0a5c259592051f50a835afb0029\n}\n",
				"bytecode": {
					"linkReferences": {},
					"object": "608060405234801561001057600080fd5b5060008060006101000a81548160ff0219169083600281111561002f57fe5b0217905550610216806100436000396000f3fe608060405260043610610067576000357c0100000000000000000000000000000000000000000000000000000000900480630f15f4c01461006c57806322f3e2d4146100835780634fc08316146100b257806351b42b00146100e1578063c19d93fb146100f8575b600080fd5b34801561007857600080fd5b50610081610131565b005b34801561008f57600080fd5b50610098610156565b604051808215151515815260200191505060405180910390f35b3480156100be57600080fd5b506100c7610184565b604051808215151515815260200191505060405180910390f35b3480156100ed57600080fd5b506100f66101b3565b005b34801561010457600080fd5b5061010d6101d8565b6040518082600281111561011d57fe5b60ff16815260200191505060405180910390f35b60026000806101000a81548160ff0219169083600281111561014f57fe5b0217905550565b600060028081111561016457fe5b6000809054906101000a900460ff16600281111561017e57fe5b14905090565b60006001600281111561019357fe5b6000809054906101000a900460ff1660028111156101ad57fe5b14905090565b60016000806101000a81548160ff021916908360028111156101d157fe5b0217905550565b6000809054906101000a900460ff168156fea165627a7a72305820622f087621fbda9850592e4888ada741c08ad597b0a5c259592051f50a835afb0029",
					"opcodes": "PUSH1 0x80 PUSH1 0x40 MSTORE CALLVALUE DUP1 ISZERO PUSH2 0x10 JUMPI PUSH1 0x0 DUP1 REVERT JUMPDEST POP PUSH1 0x0 DUP1 PUSH1 0x0 PUSH2 0x100 EXP DUP2 SLOAD DUP2 PUSH1 0xFF MUL NOT AND SWAP1 DUP4 PUSH1 0x2 DUP2 GT ISZERO PUSH2 0x2F JUMPI INVALID JUMPDEST MUL OR SWAP1 SSTORE POP PUSH2 0x216 DUP1 PUSH2 0x43 PUSH1 0x0 CODECOPY PUSH1 0x0 RETURN INVALID PUSH1 0x80 PUSH1 0x40 MSTORE PUSH1 0x4 CALLDATASIZE LT PUSH2 0x67 JUMPI PUSH1 0x0 CALLDATALOAD PUSH29 0x100000000000000000000000000000000000000000000000000000000 SWAP1 DIV DUP1 PUSH4 0xF15F4C0 EQ PUSH2 0x6C JUMPI DUP1 PUSH4 0x22F3E2D4 EQ PUSH2 0x83 JUMPI DUP1 PUSH4 0x4FC08316 EQ PUSH2 0xB2 JUMPI DUP1 PUSH4 0x51B42B00 EQ PUSH2 0xE1 JUMPI DUP1 PUSH4 0xC19D93FB EQ PUSH2 0xF8 JUMPI JUMPDEST PUSH1 0x0 DUP1 REVERT JUMPDEST CALLVALUE DUP1 ISZERO PUSH2 0x78 JUMPI PUSH1 0x0 DUP1 REVERT JUMPDEST POP PUSH2 0x81 PUSH2 0x131 JUMP JUMPDEST STOP JUMPDEST CALLVALUE DUP1 ISZERO PUSH2 0x8F JUMPI PUSH1 0x0 DUP1 REVERT JUMPDEST POP PUSH2 0x98 PUSH2 0x156 JUMP JUMPDEST PUSH1 0x40 MLOAD DUP1 DUP3 ISZERO ISZERO ISZERO ISZERO DUP2 MSTORE PUSH1 0x20 ADD SWAP2 POP POP PUSH1 0x40 MLOAD DUP1 SWAP2 SUB SWAP1 RETURN JUMPDEST CALLVALUE DUP1 ISZERO PUSH2 0xBE JUMPI PUSH1 0x0 DUP1 REVERT JUMPDEST POP PUSH2 0xC7 PUSH2 0x184 JUMP JUMPDEST PUSH1 0x40 MLOAD DUP1 DUP3 ISZERO ISZERO ISZERO ISZERO DUP2 MSTORE PUSH1 0x20 ADD SWAP2 POP POP PUSH1 0x40 MLOAD DUP1 SWAP2 SUB SWAP1 RETURN JUMPDEST CALLVALUE DUP1 ISZERO PUSH2 0xED JUMPI PUSH1 0x0 DUP1 REVERT JUMPDEST POP PUSH2 0xF6 PUSH2 0x1B3 JUMP JUMPDEST STOP JUMPDEST CALLVALUE DUP1 ISZERO PUSH2 0x104 JUMPI PUSH1 0x0 DUP1 REVERT JUMPDEST POP PUSH2 0x10D PUSH2 0x1D8 JUMP JUMPDEST PUSH1 0x40 MLOAD DUP1 DUP3 PUSH1 0x2 DUP2 GT ISZERO PUSH2 0x11D JUMPI INVALID JUMPDEST PUSH1 0xFF AND DUP2 MSTORE PUSH1 0x20 ADD SWAP2 POP POP PUSH1 0x40 MLOAD DUP1 SWAP2 SUB SWAP1 RETURN JUMPDEST PUSH1 0x2 PUSH1 0x0 DUP1 PUSH2 0x100 EXP DUP2 SLOAD DUP2 PUSH1 0xFF MUL NOT AND SWAP1 DUP4 PUSH1 0x2 DUP2 GT ISZERO PUSH2 0x14F JUMPI INVALID JUMPDEST MUL OR SWAP1 SSTORE POP JUMP JUMPDEST PUSH1 0x0 PUSH1 0x2 DUP1 DUP2 GT ISZERO PUSH2 0x164 JUMPI INVALID JUMPDEST PUSH1 0x0 DUP1 SWAP1 SLOAD SWAP1 PUSH2 0x100 EXP SWAP1 DIV PUSH1 0xFF AND PUSH1 0x2 DUP2 GT ISZERO PUSH2 0x17E JUMPI INVALID JUMPDEST EQ SWAP1 POP SWAP1 JUMP JUMPDEST PUSH1 0x0 PUSH1 0x1 PUSH1 0x2 DUP2 GT ISZERO PUSH2 0x193 JUMPI INVALID JUMPDEST PUSH1 0x0 DUP1 SWAP1 SLOAD SWAP1 PUSH2 0x100 EXP SWAP1 DIV PUSH1 0xFF AND PUSH1 0x2 DUP2 GT ISZERO PUSH2 0x1AD JUMPI INVALID JUMPDEST EQ SWAP1 POP SWAP1 JUMP JUMPDEST PUSH1 0x1 PUSH1 0x0 DUP1 PUSH2 0x100 EXP DUP2 SLOAD DUP2 PUSH1 0xFF MUL NOT AND SWAP1 DUP4 PUSH1 0x2 DUP2 GT ISZERO PUSH2 0x1D1 JUMPI INVALID JUMPDEST MUL OR SWAP1 SSTORE POP JUMP JUMPDEST PUSH1 0x0 DUP1 SWAP1 SLOAD SWAP1 PUSH2 0x100 EXP SWAP1 DIV PUSH1 0xFF AND DUP2 JUMP INVALID LOG1 PUSH6 0x627A7A723058 KECCAK256 PUSH3 0x2F0876 0x21 0xfb 0xda SWAP9 POP MSIZE 0x2e 0x48 DUP9 0xad 0xa7 COINBASE 0xc0 DUP11 0xd5 SWAP8 0xb0 0xa5 0xc2 MSIZE MSIZE KECCAK256 MLOAD CREATE2 EXP DUP4 GAS 0xfb STOP 0x29 "
				},
				"gasEstimates": {
					"creation": {
						"codeDepositCost": "106800",
						"executionCost": "20440",
						"totalCost": "127240"
					},
					"external": {
						"activate()": "20414",
						"deactivate()": "20480",
						"isActive()": "524",
						"isSleepy()": "546",
						"state()": "544"
					}
				},
				"methodIdentifiers": {
					"activate()": "0f15f4c0",
					"deactivate()": "51b42b00",
					"isActive()": "22f3e2d4",
					"isSleepy()": "4fc08316",
					"state()": "c19d93fb"
				}
			},
			"userdoc": {
				"methods": {}
			}
		}
	}
}